{
  "_format": "hh-sol-artifact-1",
  "contractName": "Remittance",
  "sourceName": "contracts/Remittance.sol",
  "abi": [
    {
      "inputs": [
        {
          "internalType": "address",
          "name": "_stablecoin",
          "type": "address"
        }
      ],
      "stateMutability": "nonpayable",
      "type": "constructor"
    },
    {
      "anonymous": false,
      "inputs": [
        {
          "indexed": true,
          "internalType": "uint256",
          "name": "transferId",
          "type": "uint256"
        },
        {
          "indexed": true,
          "internalType": "address",
          "name": "sender",
          "type": "address"
        },
        {
          "indexed": true,
          "internalType": "address",
          "name": "recipient",
          "type": "address"
        },
        {
          "indexed": false,
          "internalType": "uint256",
          "name": "amount",
          "type": "uint256"
        },
        {
          "indexed": false,
          "internalType": "uint256",
          "name": "fxRate",
          "type": "uint256"
        },
        {
          "indexed": false,
          "internalType": "string",
          "name": "sourceCurrency",
          "type": "string"
        },
        {
          "indexed": false,
          "internalType": "string",
          "name": "targetCurrency",
          "type": "string"
        }
      ],
      "name": "TransferInitiated",
      "type": "event"
    },
    {
      "anonymous": false,
      "inputs": [
        {
          "indexed": true,
          "internalType": "uint256",
          "name": "transferId",
          "type": "uint256"
        },
        {
          "indexed": true,
          "internalType": "address",
          "name": "recipient",
          "type": "address"
        },
        {
          "indexed": false,
          "internalType": "uint256",
          "name": "amount",
          "type": "uint256"
        }
      ],
      "name": "Withdrawn",
      "type": "event"
    },
    {
      "inputs": [
        {
          "internalType": "uint256",
          "name": "transferId",
          "type": "uint256"
        }
      ],
      "name": "getTransfer",
      "outputs": [
        {
          "components": [
            {
              "internalType": "address",
              "name": "sender",
              "type": "address"
            },
            {
              "internalType": "address",
              "name": "recipient",
              "type": "address"
            },
            {
              "internalType": "uint256",
              "name": "amount",
              "type": "uint256"
            },
            {
              "internalType": "uint256",
              "name": "fxRate",
              "type": "uint256"
            },
            {
              "internalType": "string",
              "name": "sourceCurrency",
              "type": "string"
            },
            {
              "internalType": "string",
              "name": "targetCurrency",
              "type": "string"
            },
            {
              "internalType": "bool",
              "name": "withdrawn",
              "type": "bool"
            }
          ],
          "internalType": "struct Remittance.Transfer",
          "name": "",
          "type": "tuple"
        }
      ],
      "stateMutability": "view",
      "type": "function"
    },
    {
      "inputs": [
        {
          "internalType": "address",
          "name": "recipient",
          "type": "address"
        },
        {
          "internalType": "uint256",
          "name": "amount",
          "type": "uint256"
        },
        {
          "internalType": "uint256",
          "name": "fxRate",
          "type": "uint256"
        },
        {
          "internalType": "string",
          "name": "sourceCurrency",
          "type": "string"
        },
        {
          "internalType": "string",
          "name": "targetCurrency",
          "type": "string"
        }
      ],
      "name": "sendRemittance",
      "outputs": [],
      "stateMutability": "nonpayable",
      "type": "function"
    },
    {
      "inputs": [],
      "name": "stablecoin",
      "outputs": [
        {
          "internalType": "address",
          "name": "",
          "type": "address"
        }
      ],
      "stateMutability": "view",
      "type": "function"
    },
    {
      "inputs": [],
      "name": "transferCount",
      "outputs": [
        {
          "internalType": "uint256",
          "name": "",
          "type": "uint256"
        }
      ],
      "stateMutability": "view",
      "type": "function"
    },
    {
      "inputs": [
        {
          "internalType": "uint256",
          "name": "",
          "type": "uint256"
        }
      ],
      "name": "transfers",
      "outputs": [
        {
          "internalType": "address",
          "name": "sender",
          "type": "address"
        },
        {
          "internalType": "address",
          "name": "recipient",
          "type": "address"
        },
        {
          "internalType": "uint256",
          "name": "amount",
          "type": "uint256"
        },
        {
          "internalType": "uint256",
          "name": "fxRate",
          "type": "uint256"
        },
        {
          "internalType": "string",
          "name": "sourceCurrency",
          "type": "string"
        },
        {
          "internalType": "string",
          "name": "targetCurrency",
          "type": "string"
        },
        {
          "internalType": "bool",
          "name": "withdrawn",
          "type": "bool"
        }
      ],
      "stateMutability": "view",
      "type": "function"
    },
    {
      "inputs": [
        {
          "internalType": "uint256",
          "name": "transferId",
          "type": "uint256"
        }
      ],
      "name": "withdraw",
      "outputs": [],
      "stateMutability": "nonpayable",
      "type": "function"
    }
  ],
  "bytecode": "0x608060405234801561001057600080fd5b506040516118c93803806118c9833981810160405281019061003291906100db565b806000806101000a81548173ffffffffffffffffffffffffffffffffffffffff021916908373ffffffffffffffffffffffffffffffffffffffff16021790555050610108565b600080fd5b600073ffffffffffffffffffffffffffffffffffffffff82169050919050565b60006100a88261007d565b9050919050565b6100b88161009d565b81146100c357600080fd5b50565b6000815190506100d5816100af565b92915050565b6000602082840312156100f1576100f0610078565b5b60006100ff848285016100c6565b91505092915050565b6117b2806101176000396000f3fe608060405234801561001057600080fd5b50600436106100625760003560e01c80632e1a7d4d146100675780639377d71114610083578063c16fe907146100b9578063c650fea5146100e9578063e3d33fc914610105578063e9cbd82214610123575b600080fd5b610081600480360381019061007c9190610c2c565b610141565b005b61009d60048036038101906100989190610c2c565b6103e0565b6040516100b09796959493929190610d54565b60405180910390f35b6100d360048036038101906100ce9190610c2c565b61057f565b6040516100e09190610eeb565b60405180910390f35b61010360048036038101906100fe9190610f9e565b6107ab565b005b61010d610b57565b60405161011a919061105a565b60405180910390f35b61012b610b5d565b6040516101389190611075565b60405180910390f35b60006002600083815260200190815260200160002090508060010160009054906101000a900473ffffffffffffffffffffffffffffffffffffffff1673ffffffffffffffffffffffffffffffffffffffff163373ffffffffffffffffffffffffffffffffffffffff16146101ea576040517f08c379a00000000000000000000000000000000000000000000000000000000081526004016101e1906110dc565b60405180910390fd5b8060060160009054906101000a900460ff161561023c576040517f08c379a000000000000000000000000000000000000000000000000000000000815260040161023390611148565b60405180910390fd5b60018160060160006101000a81548160ff02191690831515021790555060008060009054906101000a900473ffffffffffffffffffffffffffffffffffffffff1673ffffffffffffffffffffffffffffffffffffffff1663a9059cbb8360010160009054906101000a900473ffffffffffffffffffffffffffffffffffffffff1684600201546040518363ffffffff1660e01b81526004016102df929190611168565b6020604051808303816000875af11580156102fe573d6000803e3d6000fd5b505050506040513d601f19601f8201168201806040525081019061032291906111bd565b905080610364576040517f08c379a000000000000000000000000000000000000000000000000000000000815260040161035b90611236565b60405180910390fd5b8160010160009054906101000a900473ffffffffffffffffffffffffffffffffffffffff1673ffffffffffffffffffffffffffffffffffffffff16837fcf7d23a3cbe4e8b36ff82fd1b05b1b17373dc7804b4ebbd6e2356716ef20237284600201546040516103d3919061105a565b60405180910390a3505050565b60026020528060005260406000206000915090508060000160009054906101000a900473ffffffffffffffffffffffffffffffffffffffff16908060010160009054906101000a900473ffffffffffffffffffffffffffffffffffffffff169080600201549080600301549080600401805461045b90611285565b80601f016020809104026020016040519081016040528092919081815260200182805461048790611285565b80156104d45780601f106104a9576101008083540402835291602001916104d4565b820191906000526020600020905b8154815290600101906020018083116104b757829003601f168201915b5050505050908060050180546104e990611285565b80601f016020809104026020016040519081016040528092919081815260200182805461051590611285565b80156105625780601f1061053757610100808354040283529160200191610562565b820191906000526020600020905b81548152906001019060200180831161054557829003601f168201915b5050505050908060060160009054906101000a900460ff16905087565b610587610b81565b600260008381526020019081526020016000206040518060e00160405290816000820160009054906101000a900473ffffffffffffffffffffffffffffffffffffffff1673ffffffffffffffffffffffffffffffffffffffff1673ffffffffffffffffffffffffffffffffffffffff1681526020016001820160009054906101000a900473ffffffffffffffffffffffffffffffffffffffff1673ffffffffffffffffffffffffffffffffffffffff1673ffffffffffffffffffffffffffffffffffffffff168152602001600282015481526020016003820154815260200160048201805461067590611285565b80601f01602080910402602001604051908101604052809291908181526020018280546106a190611285565b80156106ee5780601f106106c3576101008083540402835291602001916106ee565b820191906000526020600020905b8154815290600101906020018083116106d157829003601f168201915b5050505050815260200160058201805461070790611285565b80601f016020809104026020016040519081016040528092919081815260200182805461073390611285565b80156107805780601f1061075557610100808354040283529160200191610780565b820191906000526020600020905b81548152906001019060200180831161076357829003601f168201915b505050505081526020016006820160009054906101000a900460ff1615151515815250509050919050565b600086116107ee576040517f08c379a00000000000000000000000000000000000000000000000000000000081526004016107e590611302565b60405180910390fd5b60008060009054906101000a900473ffffffffffffffffffffffffffffffffffffffff1673ffffffffffffffffffffffffffffffffffffffff166323b872dd33308a6040518463ffffffff1660e01b815260040161084e93929190611322565b6020604051808303816000875af115801561086d573d6000803e3d6000fd5b505050506040513d601f19601f8201168201806040525081019061089191906111bd565b9050806108d3576040517f08c379a00000000000000000000000000000000000000000000000000000000081526004016108ca906113a5565b60405180910390fd5b6000600160008154809291906108e8906113f4565b9190505590506040518060e001604052803373ffffffffffffffffffffffffffffffffffffffff1681526020018a73ffffffffffffffffffffffffffffffffffffffff16815260200189815260200188815260200187878080601f016020809104026020016040519081016040528093929190818152602001838380828437600081840152601f19601f82011690508083019250505050505050815260200185858080601f016020809104026020016040519081016040528093929190818152602001838380828437600081840152601f19601f820116905080830192505050505050508152602001600015158152506002600083815260200190815260200160002060008201518160000160006101000a81548173ffffffffffffffffffffffffffffffffffffffff021916908373ffffffffffffffffffffffffffffffffffffffff16021790555060208201518160010160006101000a81548173ffffffffffffffffffffffffffffffffffffffff021916908373ffffffffffffffffffffffffffffffffffffffff16021790555060408201518160020155606082015181600301556080820151816004019081610aa29190611617565b5060a0820151816005019081610ab89190611617565b5060c08201518160060160006101000a81548160ff0219169083151502179055509050508873ffffffffffffffffffffffffffffffffffffffff163373ffffffffffffffffffffffffffffffffffffffff16827fdd8aae72d9cc29ca7447386bf6957d40c51403049eec1dc84386c19614c056688b8b8b8b8b8b604051610b4496959493929190611725565b60405180910390a4505050505050505050565b60015481565b60008054906101000a900473ffffffffffffffffffffffffffffffffffffffff1681565b6040518060e00160405280600073ffffffffffffffffffffffffffffffffffffffff168152602001600073ffffffffffffffffffffffffffffffffffffffff168152602001600081526020016000815260200160608152602001606081526020016000151581525090565b600080fd5b600080fd5b6000819050919050565b610c0981610bf6565b8114610c1457600080fd5b50565b600081359050610c2681610c00565b92915050565b600060208284031215610c4257610c41610bec565b5b6000610c5084828501610c17565b91505092915050565b600073ffffffffffffffffffffffffffffffffffffffff82169050919050565b6000610c8482610c59565b9050919050565b610c9481610c79565b82525050565b610ca381610bf6565b82525050565b600081519050919050565b600082825260208201905092915050565b60005b83811015610ce3578082015181840152602081019050610cc8565b60008484015250505050565b6000601f19601f8301169050919050565b6000610d0b82610ca9565b610d158185610cb4565b9350610d25818560208601610cc5565b610d2e81610cef565b840191505092915050565b60008115159050919050565b610d4e81610d39565b82525050565b600060e082019050610d69600083018a610c8b565b610d766020830189610c8b565b610d836040830188610c9a565b610d906060830187610c9a565b8181036080830152610da28186610d00565b905081810360a0830152610db68185610d00565b9050610dc560c0830184610d45565b98975050505050505050565b610dda81610c79565b82525050565b610de981610bf6565b82525050565b600082825260208201905092915050565b6000610e0b82610ca9565b610e158185610def565b9350610e25818560208601610cc5565b610e2e81610cef565b840191505092915050565b610e4281610d39565b82525050565b600060e083016000830151610e606000860182610dd1565b506020830151610e736020860182610dd1565b506040830151610e866040860182610de0565b506060830151610e996060860182610de0565b5060808301518482036080860152610eb18282610e00565b91505060a083015184820360a0860152610ecb8282610e00565b91505060c0830151610ee060c0860182610e39565b508091505092915050565b60006020820190508181036000830152610f058184610e48565b905092915050565b610f1681610c79565b8114610f2157600080fd5b50565b600081359050610f3381610f0d565b92915050565b600080fd5b600080fd5b600080fd5b60008083601f840112610f5e57610f5d610f39565b5b8235905067ffffffffffffffff811115610f7b57610f7a610f3e565b5b602083019150836001820283011115610f9757610f96610f43565b5b9250929050565b600080600080600080600060a0888a031215610fbd57610fbc610bec565b5b6000610fcb8a828b01610f24565b9750506020610fdc8a828b01610c17565b9650506040610fed8a828b01610c17565b955050606088013567ffffffffffffffff81111561100e5761100d610bf1565b5b61101a8a828b01610f48565b9450945050608088013567ffffffffffffffff81111561103d5761103c610bf1565b5b6110498a828b01610f48565b925092505092959891949750929550565b600060208201905061106f6000830184610c9a565b92915050565b600060208201905061108a6000830184610c8b565b92915050565b7f4e6f742074686520726563697069656e74000000000000000000000000000000600082015250565b60006110c6601183610cb4565b91506110d182611090565b602082019050919050565b600060208201905081810360008301526110f5816110b9565b9050919050565b7f416c72656164792077697468647261776e000000000000000000000000000000600082015250565b6000611132601183610cb4565b915061113d826110fc565b602082019050919050565b6000602082019050818103600083015261116181611125565b9050919050565b600060408201905061117d6000830185610c8b565b61118a6020830184610c9a565b9392505050565b61119a81610d39565b81146111a557600080fd5b50565b6000815190506111b781611191565b92915050565b6000602082840312156111d3576111d2610bec565b5b60006111e1848285016111a8565b91505092915050565b7f5769746864726177616c206661696c6564000000000000000000000000000000600082015250565b6000611220601183610cb4565b915061122b826111ea565b602082019050919050565b6000602082019050818103600083015261124f81611213565b9050919050565b7f4e487b7100000000000000000000000000000000000000000000000000000000600052602260045260246000fd5b6000600282049050600182168061129d57607f821691505b6020821081036112b0576112af611256565b5b50919050565b7f416d6f756e74206d757374206265203e20300000000000000000000000000000600082015250565b60006112ec601283610cb4565b91506112f7826112b6565b602082019050919050565b6000602082019050818103600083015261131b816112df565b9050919050565b60006060820190506113376000830186610c8b565b6113446020830185610c8b565b6113516040830184610c9a565b949350505050565b7f5472616e73666572206661696c65640000000000000000000000000000000000600082015250565b600061138f600f83610cb4565b915061139a82611359565b602082019050919050565b600060208201905081810360008301526113be81611382565b9050919050565b7f4e487b7100000000000000000000000000000000000000000000000000000000600052601160045260246000fd5b60006113ff82610bf6565b91507fffffffffffffffffffffffffffffffffffffffffffffffffffffffffffffffff8203611431576114306113c5565b5b600182019050919050565b7f4e487b7100000000000000000000000000000000000000000000000000000000600052604160045260246000fd5b60008190508160005260206000209050919050565b60006020601f8301049050919050565b600082821b905092915050565b6000600883026114cd7fffffffffffffffffffffffffffffffffffffffffffffffffffffffffffffffff82611490565b6114d78683611490565b95508019841693508086168417925050509392505050565b6000819050919050565b600061151461150f61150a84610bf6565b6114ef565b610bf6565b9050919050565b6000819050919050565b61152e836114f9565b61154261153a8261151b565b84845461149d565b825550505050565b600090565b61155761154a565b611562818484611525565b505050565b5b818110156115865761157b60008261154f565b600181019050611568565b5050565b601f8211156115cb5761159c8161146b565b6115a584611480565b810160208510156115b4578190505b6115c86115c085611480565b830182611567565b50505b505050565b600082821c905092915050565b60006115ee600019846008026115d0565b1980831691505092915050565b600061160783836115dd565b9150826002028217905092915050565b61162082610ca9565b67ffffffffffffffff8111156116395761163861143c565b5b6116438254611285565b61164e82828561158a565b600060209050601f831160018114611681576000841561166f578287015190505b61167985826115fb565b8655506116e1565b601f19841661168f8661146b565b60005b828110156116b757848901518255600182019150602085019450602081019050611692565b868310156116d457848901516116d0601f8916826115dd565b8355505b6001600288020188555050505b505050505050565b82818337600083830152505050565b60006117048385610cb4565b93506117118385846116e9565b61171a83610cef565b840190509392505050565b600060808201905061173a6000830189610c9a565b6117476020830188610c9a565b818103604083015261175a8186886116f8565b9050818103606083015261176f8184866116f8565b905097965050505050505056fea2646970667358221220107d16fe8845102e78e4be3bf7114eca453e9a361f1f3e4c62772a42e3b753a664736f6c634300081c0033",
  "linkReferences": {},
  "deployedLinkReferences": {}
}